:020000040800F2
:10000000288600204D060008290400082B0400085B
:100010002F04000833040008370400080000000023
:10002000000000000000000000000000290200089D
:100030003B0400080000000085020008616200081F
:1000400067060008670600086706000867060008DC
:1000500067060008670600086706000867060008CC
:1000600067060008670600086706000867060008BC
:1000700067060008670600086706000867060008AC
:10008000670600086706000867060008670600089C
:10009000670600086706000867060008670600088C
:1000A000670600086706000867060008670600087C
:1000B000670600086706000867060008670600086C
:1000C000670600086706000867060008670600085C
:1000D000670600086706000867060008670600084C
:1000E000670600086706000867060008670600083C
:1000F000670600086706000867060008670600082C
:10010000670600086706000867060008670600081B
:10011000670600086706000867060008670600080B
:1001200067060008670600086706000867060008FB
:1001300067060008670600086706000867060008EB
:1001400067060008670600086706000867060008DB
:1001500067060008670600086706000867060008CB
:1001600067060008670600086706000867060008BB
:1001700067060008670600086706000867060008AB
:10018000670600086706000800F002F800F03CF877
:100190000AA090E8000C82448344AAF10107DA45E2
:1001A00001D100F031F8AFF2090EBAE80F0013F0F8
:1001B000010F18BFFB1A43F0010318471465000034
:1001C00034650000103A24BF78C878C1FAD85207C5
:1001D00024BF30C830C144BF04680C6070470000C1
:1001E0000023002400250026103A28BF78C1FBD840
:1001F000520728BF30C148BF0B6070471FB506F0DB
:1002000054FA1FBD10B510BD06F098F91146FFF75E
:10021000F5FF00F096F806F0B6F903B4FFF7F2FF29
:1002200003BC06F0BBF900002C4B19680868B0E865
:10023000F04F80F30988BFF36F8F4FF0000080F319
:10024000118870470000000008480068006880F3CB
:1002500008884FF0000080F3148862B661B6BFF3DF
:100260004F8FBFF36F8F00DF00BF00BF08ED00E0CE
:10027000DFF80C00016841F470010160704700BFB5
:1002800088ED00E0EFF30980BFF36F8F134B1A681E
:100290001EF0100F08BF20ED108A20E9F04F10600B
:1002A00009B44FF0500080F31188BFF34F8FBFF3B4
:1002B0006F8F03F043FD4FF0000080F3118809BCFD
:1002C00019680868B0E8F04F1EF0100F08BFB0ECD6
:1002D000108A80F30988BFF36F8F70473C000020BD
:1002E000EFF305807047000000BFFEE700BFFEE7A8
:1002F0007047704708B500BF03F0C8FF05464FF4CC
:100300000051314800F0CFFA642003F0D6FB03F02F
:10031000BDFF441B04EB840149000091042269469F
:100320002A4B186801F00AF8032001F019FB28A1F4
:100330000020009A01F05FFE2CA1002001F05BFE7E
:10034000DAE71FB501F008FB0121042000F0C2FC30
:100350004FF40050029001208DF80C0000208DF821
:100360000E0002208DF80D0000208DF80F0002A96C
:10037000154800F011FA4FF40051134800F08AFAC2
:100380000020012103468022CDE9001019A1AFF21F
:100390009B0003F076F8012801D000BFFEE70020A3
:1003A00001F0DEFA14A1002001F025FE0220C302B4
:1003B0001B4A1CA100900548006801F085F903F074
:1003C0000FFF00BFFEE70000000802400000002011
:1003D0001B5B33346D5B494E464F5D206475726123
:1003E00074696F6E203D2025640A00001B5B306D30
:1003F000000000004C4544003D3D3D205254542037
:1004000044656275672053797374656D2054657314
:10041000742053746172746564203D3D3D0A000090
:10042000B800002073000000704700BFFEE700BF67
:10043000FEE700BFFEE700BFFEE770470CB50020F7
:10044000019000907648006840F48030744908605C
:1004500000BF7348006800F4003000900198401C11
:100460000190009818B90198B0F5A04FF1D16C48EF
:10047000006800F4003010B10120009001E000207D
:1004800000900098012846D165484030006840F04F
:1004900080506349403108606248006840F4404041
:1004A000604908605E48083000685D4908310860AE
:1004B0000846006840F4004008600846006840F4C0
:1004C000A05008605848091F0860081F006840F0E5
:1004D0008070091F086000BF5148006800F000707C
:1004E0000028F9D040F20570504908604C480830A7
:1004F000006820F003004A49083108600846006897
:1005000040F00200086000BF45480830006800F075
:100510000C000828F8D10CBD10B54548006840F41F
:100520007000434908603E48006840F001003C49C3
:10053000086000203A4908310860394800683D49A0
:100540000840374908603C48091D0860081F0068DA
:1005500020F48020091F0860002031490C31086018
:10056000FFF76CFF4FF0006031498039086010BD23
:1005700070B500200022022300240221284D0835F6
:100580002D6805F00C0020B1042806D0082834D1CD
:1005900007E02A4D2A4E356033E02A4D284E35605B
:1005A0002FE01F4D2D1D2D68C5F380541C4D2D1DB2
:1005B0002D6805F03F0154B1224DB5FBF1F5184E01
:1005C000361D3668C6F3881605FB06F209E01B4D9A
:1005D000B5FBF1F5124E361D3668C6F3881605FBDD
:1005E00006F20F4D2D1D2D68C5F301456D1C6B00E6
:1005F000B2FBF3F5124E356003E0104D104E35603E
:1006000000BF00BF064D08352D68C5F303150E4E1B
:10061000705D0B4D2D68C540094E356070BD000002
:10062000003802400070004008544007003C02407F
:1006300088ED00E0FFFFF6FE103000240024F400F7
:100640000400002000127A000800002009488047BA
:1006500009480047FEE7FEE7FEE7FEE7FEE7FEE7A4
:10066000FEE7FEE7FEE7FEE704480549054A064BBC
:100670007047000019050008890100082880002043
:1006800028860020288200202882002010B50446F9
:100690009848844208D10121084600F086FB0021D9
:1006A000012000F082FB76E09348844208D10121CA
:1006B000022000F07AFB0021022000F076FB6AE0C5
:1006C0008E48844208D10121042000F06EFB0021F5
:1006D000042000F06AFB5EE08948844208D10121D1
:1006E000082000F062FB0021082000F05EFB52E0D1
:1006F0008448844208D10121102000F056FB0021DB
:10070000102000F052FB46E07F48844208D10121CE
:10071000202000F04AFB0021202000F046FB3AE0B8
:100720007A48844208D10121402000F03EFB00219C
:10073000402000F03AFB2EE07548844208D10121A8
:10074000802000F032FB0021802000F02EFB22E010
:100750007048844208D10121801500F026FB002159
:10076000A01500F022FB16E06B48844208D101215D
:10077000401500F01AFB0021601500F016FB0AE09E
:100780006648844207D10121001500F00EFB0021CC
:10079000201500F00AFB10BDF0B50A460021002329
:1007A000002400BF3DE0012505FA01F3156805EAC4
:1007B00003049C4234D105684F000326BE40B54374
:1007C000056015794E00B54006683543056015791A
:1007D000012D02D01579022D16D185684F00032610
:1007E000BE40B543856055794E00B54086683543B7
:1007F0008560456801268E40B54345604568967919
:100800008E40B6B235434560C5684F000326BE40F2
:10081000B543C560D5794E00B540C6683543C5605F
:10082000491C1029BFD3F0BD4FF6FF7101600021B4
:10083000017141718171C171704708B54FF4803207
:100840000092009A0A430092009AC261C161009A24
:10085000C261C2690092C269009208BD02460020CE
:1008600013690B400BB1012000E0002070470146E6
:10087000086980B270470246002053690B400BB1F3
:10088000012000E0002070470146486980B27047AF
:1008900001837047418370470AB1018300E04183BF
:1008A00070474161704742694A4042617047F0B504
:1008B000002300244D07ED0E02FA05F3CE1000F1DF
:1008C000200555F826504E07F70E0F26BE40B543BB
:1008D000CF1000F1200646F82750CE1000F1200579
:1008E00055F8265045EA0304CE1000F1200545F8DE
:1008F0002640F0BD00000240000402400008024013
:10090000000C024000100240001402400018024097
:10091000001C024000200240002402400028024047
:10092000F948006840F00100F74908600020F649E6
:1009300008310860F4480068F4490840F24908604A
:10094000F348091D0860F348EF4984310860F04816
:100950001038091D0860EC48006820F48020EA493E
:1009600008600020E8490C310860E7498C310860D4
:1009700070470021E44A921C1170114608707047BC
:1009800010B501460022002300204A11012A02D19D
:10099000DD4C236808E0022A03D1DB4C7034236865
:1009A00002E0D94C7434236801F01F020124944002
:1009B0001C400CB1012000E0002010BD38B5002023
:1009C00000900024002500BF3120FFF7D9FF054625
:1009D0000098401C00900098B0F5A04F01D0002D69
:1009E000F2D03120FFF7CCFF08B1012400E0002451
:1009F000204638BD01460020C34A106820F0F800A8
:100A000040EAC10010607047C34908607047002188
:100A1000BD4A703211701170012802D004280AD129
:100A200004E00121B84A7032117005E00521B64A90
:100A30007032117000E000BF00BF7047B749086016
:100A4000704770B5049C41EA82150126C6EB530637
:100A500045EA0645054345EA0465AB4E361D35605B
:100A600070BDAD4908667047820142EA0172A64B2B
:100A700084331A607047A8498866704710B58301AF
:100A800043EA016343EA02739F4C8834236010BD3C
:100A9000A14908677047A049C86470470246002012
:100AA000994B0833186820F0EC6042EA01031843C0
:100AB000954B08331860704702460020924B08336C
:100AC000186820F0784042EA010318438E4B08333F
:100AD00018607047014600208B4A0832106820F0E9
:100AE000030008431060704787480830006800F032
:100AF0000C00704701460020834A0832106820F03D
:100B0000F000084310607047014600207E4A08321A
:100B1000106820F4E0500843106070470146002040
:100B2000794A0832106820F4604040EAC100106041
:100B30007047F0B500210022002402250026022380
:100B4000714F08373F6807F00C0121B1042905D027
:100B5000082937D105E0724F076036E0714F076012
:100B600033E0694F3F1D3F68C7F38056664F3F1D16
:100B70003F6807F03F036EB16A4FB7FBF3F7DFF84A
:100B800088C10CF1040CDCF800C0CCF3881C07FB16
:100B90000CF40CE0624FB7FBF3F7DFF86CC10CF11B
:100BA000040CDCF800C0CCF3881C07FB0CF4564F97
:100BB0003F1D3F68C7F301477F1C7D00B4FBF5F77D
:100BC000076002E0564F076000BF00BF4E4F083776
:100BD0003F6807F0F0010909534F7A5C0768D74076
:100BE0004760494F08373F6807F4E051890A4E4F84
:100BF0007A5C4768D7408760434F08373F6807F4FF
:100C00006041490B484F7A5C4768D740C760F0BDE8
:100C1000002100F44072B2F5407F0AD13A4A08320E
:100C2000116821F4F811414A02401143364A083252
:100C30001160354A70321268C0F30B031A43324B0D
:100C400070331A607047354944390860704733493A
:100C500040390860704736490860704701460020F7
:100C6000294A8C32106820F01F004A1E1043264A81
:100C70008C321060704701460020234A8C32106885
:100C800020F4F8504A1E40EA02201F4A8C321060BD
:100C90007047014600201C4A8C32106820F4401036
:100CA00008431060704701460020174A8C321068D4
:100CB00020F4400008431060704701460020124AAB
:100CC0008C32106820F44030084310607047194996
:100CD0000860704739B10C4A3032126802430A4B3F
:100CE00030331A6006E0084A303212688243064BFD
:100CF00030331A607047F9B1034A34321268024344
:100D0000014B34331A601CE000380240FFFFF6EA62
:100D1000103000240030002000004742800E47427F
:100D20000024F40000127A0018000020FFFCFF0FDE
:100D30005C014742E01147428F4A126882438E4B62
:100D40001A60704739B18C4A121D126802438A4BEF
:100D50001B1D1A6006E0884A121D12688243864BEA
:100D60001B1D1A60704739B1834A0C321268024366
:100D7000814B0C331A6006E07F4A0C3212688243C2
:100D80007D4B0C331A60704739B17B4A10321268C0
:100D90000243794B10331A6006E0774A103212682A
:100DA0008243754B10331A60704739B1724A243A46
:100DB00012680243704B243B1A6006E06E4A243AE4
:100DC000126882436C4B243B1A60704739B16A4AFF
:100DD000203A12680243684B203B1A6006E0664ADC
:100DE000203A12688243644B203B1A60704739B145
:100DF000614A1C3A126802435F4B1C3B1A6006E0D2
:100E00005D4A1C3A126882435B4B1C3B1A60704778
:100E100039B1594A143A12680243574B143B1A60CD
:100E200006E0554A143A12688243534B143B1A6049
:100E3000704739B1504A103A126802434E4B103B8A
:100E40001A6006E04C4A103A126882434A4B103B43
:100E50001A60704739B1484A1C3212680243464B47
:100E60001C331A6006E0444A1C3212688243424B2B
:100E70001C331A60704739B13F4A2032126802436E
:100E80003D4B20331A6006E03B4A20321268824311
:100E9000394B20331A60704739B1374A243212680F
:100EA0000243354B24331A6006E0334A2432126879
:100EB0008243314B24331A60704739B12E4A2C32A9
:100EC000126802432C4B2C331A6006E02A4A2C325B
:100ED00012688243284B2C331A60704739B1264A76
:100EE000303212680243244B30331A6006E0224A43
:100EF000303212688243204B30331A607047012829
:100F000008D11D493C31096841F008011A4A3C32B8
:100F1000116007E018493C31096821F00801164AC0
:100F20003C321160704739B1134A273A12780243B4
:100F3000114B273B1A7006E00F4A273A127882437A
:100F40000D4B273B1A7070470B484030006840F04B
:100F50008070094940310860704701460020064A08
:100F6000283A12680A400AB1012000E000207047C8
:100F700001492639087070473438024010B5FD4CDD
:100F8000032020616061FCA0A061FE49E1614FF493
:100F9000806121620021A1626162E162F6A02066A7
:100FA000F94961661021A16600212167E166616748
:100FB000F6A1E01D05F0B4F9F5A1204605F0B0F961
:100FC0002020A07110BD2DE9F04704468946174640
:100FD0004FF0000AE56800BFD4F81080A84503D997
:100FE000A8EB0500461E04E0A5EB0800401CA16824
:100FF0000E1AA068401BB04201D9304601E0A0683B
:10100000401B0646BE4201D2304600E03846064646
:10101000616848193246494605F0C5F9B244B14401
:10102000BF1B3544A068A84200D10025E560002F11
:10103000D2D15046BDE8F0872DE9F04704468946F5
:101040001546E668A068871BAF4208D96168881911
:101050002A46494605F0A7F97019E06010E0B84645
:10106000616888194246494605F09DF9A5EB0708D5
:1010700009EB07014246606805F095F9C4F80C8059
:10108000BDE8F08738B505460C46FF208DF8000016
:10109000C148005D8DF80100022269462846FFF72D
:1010A00092FF38BD10B501460A69CB689A4204D850
:1010B0008C68641EE41AA01801E0D41A601E10BDEA
:1010C0002DE9F74F8346174600BFAA48007808B9B4
:1010D000FFF754FF00BF0BEB4B01A648603000EB5D
:1010E000C106DDF804903569D6F80CA04FF0000871
:1010F000554515D9B068441BBC4201D2204600E0DA
:1011000038460446706841192246484605F04BF9B6
:10111000A044A1443F1B2544B068A84200D100254B
:10112000AAEB0504BC4201D2204600E03846044642
:101130004CB1706841192246484605F034F9A04484
:10114000A1443F1B2544B8F1000F00D03561404653
:10115000BDE8FE8F2DE9F04104460D461646EFF33B
:1011600011808046202080F3118800BF00BF3246E6
:1011700029462046FFF7A4FF074608F0FF0080F34A
:10118000118800BF00BF3846BDE8F0812DE9F04767
:10119000074688461646C14607EB47017548183092
:1011A00000EBC104D4E90301884202D1A068451EC6
:1011B0000EE0D4E90301884204D22069E168401AB4
:1011C000451E05E02069E168401A401EA1684518E7
:1011D000AE420CD92069711B0844206103E02069EC
:1011E000A168401A20612069A1688842F7D2D4E939
:1011F0000201451A00BFB5420AD9E2686168881841
:101200003246494605F0CFF8E0683044E0600EE031
:10121000E268616888182A46494605F0C4F8A9447E
:101220000020E060761BA068451E002EE3D100BFC1
:10123000BDE8F0872DE9F84F82468B461546CDF87C
:1012400000B00AEB4A014B48183000EBC104D4F857
:101250001090E668B14529D8A068801B471EAF42B0
:101260000BD300BF616888192A46009905F09BF8E6
:101270007019E0600120BDE8F88F4F44AF421BD3E6
:10128000A068A0EB0608616888194246009905F03D
:101290008AF8A5EB080535B1009A02EB08012A4649
:1012A000606805F080F8E5600120E4E7A9EB06003E
:1012B000471EAF4200D3D5E70020DCE72DE9F04719
:1012C000074688461646C24607EB470129481830AC
:1012D00000EBC109D9F8140020B1012811D002286F
:1012E00026D11EE04846FFF7DDFE0546B54201D295
:1012F000002405E03446324651464846FFF79CFE3E
:1013000018E04846FFF7CEFE0546B54201D2284612
:1013100000E030460446224651464846FFF78CFE20
:1013200008E0324651464846FFF74DFE044601E0CC
:10133000002400BF00BF2046BDE8F0872DE9F04142
:1013400004460D46164600BF0A48007808B9FFF764
:1013500015FE00BFEFF311800746202080F31188AF
:1013600000BF00BF324629462046FFF7A7FF804650
:10137000F8B213E0B81000205465726D696E616CAC
:10138000000000006011002060150020525454003D
:1013900053454747455200002800002080F311883C
:1013A00000BF00BF4046BDE8F08170B505460C4661
:1013B000204604F0D9FF0646324621462846FFF76C
:1013C000BDFF70BD70B503460C4603EB4306FE4DF2
:1013D00005EBC601CD686A1C8D68954200D10022DC
:1013E0000D69954205D0CE684D68AC55CA600120A4
:1013F00000E0002070BD2DE9F0410746884600BF9F
:10140000F1481838007808B9FFF7B8FD00BFEFF3CE
:1014100011810846202181F3118800BF00BF07EB2E
:101420004702E94901EBC204E1684D1CA168A942E9
:1014300000D100252169A94206D0E268616801F85F
:101440000280E560012600E00026C1B281F3118828
:1014500000BF00BF3046BDE8F0812DE9F0410746EE
:10146000884600BFD8481838007808B9FFF786FDCD
:1014700000BFEFF311810846202181F3118800BFDE
:1014800000BF07EB4702D04901EBC204E1684D1CE5
:10149000A168A94200D100256169022903D100BFDA
:1014A0002169A942FCD02169A94206D0E26861689D
:1014B00001F80280E560012600E00026C1B281F358
:1014C000118800BF00BF3046BDE8F08138B5012269
:1014D00069460020FFF73EFE0446012C02D19DF82C
:1014E000004001E04FF0FF34204638BD10B500BF8A
:1014F000FFF7ECFF0028FBDB10BD70B500BFB24862
:101500001838007808B9FFF739FD00BFAE48183821
:10151000056FC06EA84201D0012400E000242046DF
:1015200070BD10B5014601EB4104A748483000EBFF
:10153000C402D3681069181A10BD10B5014601EB3A
:101540004104A14800EBC4021369D068C01A10BD61
:101550002DE9F04105460E461746984600BF9A48C9
:101560001838007808B9FFF709FD00BFEFF31181C3
:101570000846202181F3118800BF00BF002400BF6E
:1015800004EB44029049483101EBC201496801B9BA
:1015900005E0641C8C4918394969A142F0DC00BFA0
:1015A000894918394969A14229DD04EB4402864979
:1015B000483141F8325004EB440201EBC2014E6065
:1015C00004EB44028049483101EBC2018F600022E4
:1015D00004EB44037C49483101EBC3010A6104EB8D
:1015E00044037949483101EBC301CA6004EB44026A
:1015F0007549483101EBC201C1F8148001E04FF098
:10160000FF34C1B281F3118800BF00BF2046BDE89E
:10161000F0812DE9F04105460E461746984600BF79
:1016200069481838007808B9FFF7A8FC00BFEFF345
:1016300011810846202181F3118800BF00BF0024DA
:1016400000BF04EB4402604901EBC201496801B9E3
:1016500005E0641C5C4918390969A142F1DC00BF4E
:10166000594918390969A14224DD04EB440256495D
:1016700041F8325004EB440201EBC2014E6004EB2E
:101680004402514901EBC2018F60002204EB440384
:101690004D4901EBC3010A6104EB44034A4901EBE4
:1016A000C301CA6004EB4402474901EBC201C1F81F
:1016B000148001E04FF0FF34C1B281F3118800BF04
:1016C00000BF2046BDE8F0812DE9F04704460E46F4
:1016D00017469846DDF8209000BF3B481838007840
:1016E00008B9FFF74BFC00BF374818380069A04223
:1016F00034D9EFF311810846202181F3118800BF0E
:1017000000BFECB104EB44022F4941F8326004EB16
:10171000440201EBC2014F6004EB44022A4901EB91
:10172000C201C1F80880002204EB4403264901EB02
:10173000C3010A6104EB4403234901EBC301CA60FE
:1017400004EB4402204901EBC201C1F81490C1B27C
:1017500081F3118800BF00BF002501E04FF0FF3585
:101760002846BDE8F0872DE9F04704460E461746A7
:101770009846DDF8209000BF13481838007808B963
:10178000FFF7FCFB00BF104818384069A0423AD967
:10179000EFF311810846202181F3118800BF00BFBB
:1017A0001CB304EB44020849483141F8326004EBB1
:1017B000440201EBC2014F6004EB4402024948318C
:1017C00001EBC20102E00000D0100020C1F8088047
:1017D000002204EB4403C44901EBC3010A6104EB9A
:1017E0004403C14901EBC301CA6004EB4402BE4992
:1017F00001EBC201C1F81490C1B281F3118800BF9E
:1018000000BF002501E04FF0FF352846BDE8F08716
:1018100070B504460E4600BFB3486038007808B97A
:10182000FFF7ACFB00BFB04860380069A04214D994
:10183000EFF311810846202181F3118800BF00BF1A
:1018400004EB4402A849483941F83260C1B281F33F
:10185000118800BF00BF002501E04FF0FF3528468A
:1018600070BD70B504460E4600BF9F4860380078D2
:1018700008B9FFF783FB00BF9B4860384069A0426E
:1018800013D9EFF311810846202181F3118800BF9D
:1018900000BF04EB4402944941F83260C1B281F3C5
:1018A000118800BF00BF002501E04FF0FF3528463A
:1018B00070BD70B504460E4600BF8B486038007896
:1018C00008B9FFF75BFB00BF874860380069A0429A
:1018D00015D9EFF311810846202181F3118800BF4B
:1018E00000BF04EB44028049483901EBC2014E615C
:1018F000C1B281F3118800BF00BF002501E04FF0A5
:10190000FF35284670BD70B504460E4600BF7648C8
:101910006038007808B9FFF731FB00BF72486038C3
:101920004069A04214D9EFF311810846202181F3C8
:10193000118800BF00BF04EB44026B4901EBC201F8
:101940004E61C1B281F3118800BF00BF002501E0E4
:101950004FF0FF35284670BD10B5FFF70FFB10BDE7
:101960002DE9F843044600BF5F486038007808B9A5
:10197000FFF704FB00BF0027FF208DF80000102CAC
:1019800031D25A48005D8DF80100574D483DEFF3C4
:1019900011808046202080F3118800BF00BF287D81
:1019A00000F00300022807D1514804700222694662
:1019B0002846FFF708FB0FE02846FFF773FB0646B3
:1019C000022E07D34A480470022269462846FFF7D0
:1019D00033FB01E04FF0FF3708F0FF0080F3118880
:1019E00000BF00BF01E04FF0FF373846BDE8F88385
:1019F0002DE9F0470746894600BF3B48603800782C
:101A000008B9FFF7BBFA00BF102F68DADFF8D880FB
:101A1000A8F14808484604F0A7FC0646EFF31180F9
:101A20008246202080F3118800BF00BF4046FFF7A8
:101A300039FB054698F8140000F0030020B1012896
:101A400017D0022840D12FE0301D854201D200245A
:101A50000EE039464046FFF715FB32464946404600
:101A6000FFF7B1FA0446224801784046FFF70AFB27
:101A70002DE0042D02D24FF0FF3414E039464046E9
:101A8000FFF700FB281FB04201D9304600E0281FB5
:101A9000024649464046FFF796FA04461448017844
:101AA0004046FFF7EFFA12E039464046FFF7EAFA00
:101AB000324649464046FFF786FA04460C4801780C
:101AC0004046FFF7DFFA02E04FF0FF3400BF00BFEF
:101AD0000AF0FF0080F3118800BF00BF01E04FF063
:101AE000FF342046BDE8F0871811002028000020B0
:101AF0003800002070B504460E46A568681C616871
:101B0000814206D320684655681CA060E068401CEE
:101B1000E060D4E9011088420DD1A26821682069F3
:101B2000FFF70CFCA168884203D04FF0FF30E06063
:101B300001E00020A06070BD2DE9FC5F8046894671
:101B400015461E460C9CCDF804900127BB4605E0C7
:101B50000198B0FBF5F001900BF1010B0198A84240
:101B6000F6D25E4500D9B3460D9800F00100D0B919
:101B7000CCB10D9800F00200022803D116B9302034
:101B8000009001E02020009009E0641E404600998A
:101B9000FFF7B0FFD8F80C00002800DA02E00CB123
:101BA000A345F2D300BFD8F80C00002835DB09E0CC
:101BB000012E01D9761E04E0B9FBF7FAAA4500D23E
:101BC00001E06F43F4E700BF00BFB9FBF7FA0AFB7F
:101BD0001799F74810F80A104046FFF78BFFD8F81E
:101BE0000C00002800DA03E0B7FBF5F7002FECD17A
:101BF00000BF0D9800F0010078B174B109E0641ED7
:101C000020214046FFF776FFD8F80C00002800DAC4
:101C100002E00CB1A345F2D300BFBDE8FC9F2DE963
:101C2000FC5F06460F4692469846DDE90C45002FBC
:101C300001DA784200E0384683464FF0010903E0BC
:101C40009BFBFAFB09F10109D345F9DAC84500D934
:101C5000C14634B1002F03DB05F00400042800D195
:101C6000641E05F0020010B1B8F1000F11D005F0AC
:101C7000010070B96CB108E0641E20213046FFF706
:101C800039FFF068002800DA02E00CB1A145F3D377
:101C900000BFF068002836DB002F05DA7F422D21D7
:101CA0003046FFF727FF07E005F00400042803D1C2
:101CB0002B213046FFF71EFFF068002823DB05F0DC
:101CC0000200022814D105F0010088B9B8F1000F14
:101CD0000ED16CB108E0641E30213046FFF70AFFD8
:101CE000F068002800DA02E00CB1A145F3D300BF90
:101CF000F068002807DB4346524639463046CDE9B6
:101D00000045FFF719FFBDE8FC9F2DE9F04F2DEDD1
:101D1000028B99B083460D4614469FEDA60AB0EE9D
:101D2000408A4FF000099FEDA30AF0EE408A0020A0
:101D3000029003A814904020159000201690CDF832
:101D400060B0179000BF2E786D1C06B93EE1252EBD
:101D500073D100274FF0010A00BF2E78232E12D036
:101D60002B2E0CD02D2E02D0302E10D103E047F0B8
:101D700001076D1C0EE047F002076D1C0AE047F0FA
:101D800004076D1C06E047F008076D1C02E04FF0E9
:101D9000000A00BF00BFBAF1000FDED14FF000080B
:101DA00000BF2E78302E01DB392E00DD07E06D1CE0
:101DB000A6F1300008EB880100EB4108F1E700BF15
:101DC000002013902E782E2E12D16D1C00BF2E787D
:101DD000302E01DB392E00DD09E06D1CA6F130004C
:101DE000139901EB810100EB41001390EFE700BF75
:101DF0002E7800BF6C2E01D0682E02D16D1C2E787B
:101E000000E000E0F6E700BF662E7DD00CDC582E27
:101E10003ED004DC252E72D0462E6FD175E0632EA5
:101E20000CD0642EF9D116E0702E55D0732E3DD013
:101E3000752E1ED0782EF0D129E0BFE02168081D54
:101E40002060D1F800A00AF0FF00019014A80199C9
:101E5000FFF750FEA8E02168081D2060D1F800A01F
:101E6000CDE900870A22514614A8139BFFF7D7FE3D
:101E70009AE02168081D2060D1F800A0CDE9008714
:101E80000A22514614A8139BFFF756FE8CE000BFB0
:101E90002168081D2060D1F800A0CDE9008710223C
:101EA000514614A8139BFFF747FE7DE02168081DEB
:101EB00020600868019000BF019806780198401CD6
:101EC000019006B906E0314614A8FFF713FE1798F3
:101ED0000028F1DA00BF67E02168081D2060D1F812
:101EE00000A0002008210B461022CDE90010514629
:101EF00014A8FFF721FE57E006E000E053E025219B
:101F000014A8FFF7F7FD4FE000BF2068C01D20F0C8
:101F1000070001460830206091ED001BB0EE410A39
:101F2000F0EE610A51EC100B04F040FB08EE100AD1
:101F3000BDEEC80A10EE109A00EE109AB8EEC00A74
:101F400038EE400AF0EE408AB5EEC08AF1EE10FAA3
:101F500009D22D2114A8FFF7CDFDC9F10009B1EE7A
:101F6000680AF0EE408A0020009003460A224946A3
:101F7000019014A8FFF753FE2E2114A8FFF7BAFD15
:101F80009FED0D0A28EE800ABDEEC00A8DED020A13
:101F9000022006210B460A22CDE9001014A802995E
:101FA000FFF7CAFD00E000BF00BF6D1C0AE00000A3
:101FB000BE6600080000000000247449314614A8E1
:101FC000FFF798FD17980028BFF6BDAE00BF179821
:101FD00000280ADD169820B103A95846169AFFF783
:101FE000ADF9DDE9161008441790179819B0BDEC4B
:101FF000028BBDE8F08F0FB438B5044606A80090F8
:102000006A4620460599FFF780FE054600200090AD
:10201000284638BC5DF814FB00F1080141604FF020
:10202000FF31816000F10801C160016100210160A0
:10203000704700210161704742684A6093688B6075
:10204000936859609160086103685B1C0360704786
:1020500010B502460B685C1C0CB9106907E002F170
:10206000080000E04068446824689C42FAD944684B
:102070004C604C68A160886041600A611468641C0F
:10208000146010BD01460A69D1E901309860D1E9B8
:10209000010358605068884201D188685060002070
:1020A00008611068401E1060106870472DE9F0410B
:1020B00005460E4601272C4654B900BF502080F338
:1020C0001188BFF34F8FBFF36F8F00BF00BFFEE7D4
:1020D000002C42D0E06B00283FD04FF0FF31E06B86
:1020E000B1FBF0F0216C884237D304F076F8D4E9E4
:1020F0000F12206801FB0200A0600020A06320688E
:102100006060E06B401E226C216800FB0211E16000
:10211000FF2084F8440084F845009EB9206908B97E
:10212000012000E00020A8B904F1100002F0EEF94F
:1021300080B14FF08050FA490860BFF34F8FBFF372
:102140006F8F07E004F11000FFF766FF04F1240031
:10215000FFF762FF04F068F800E000270FB10120EC
:1021600000E0002050B900BF502080F31188BFF379
:102170004F8FBFF36F8F00BF00BFFEE73846BDE84B
:10218000F0812DE9F04106460D4617469846069C1B
:102190000DB9246000E02760E66325640121204634
:1021A000FFF784FFBDE8F0812DE9F84380460E4635
:1021B00017461C46DDF82090002554B900BF50207A
:1021C00080F31188BFF34F8FBFF36F8F00BF00BF45
:1021D000FEE7B8F1000F25D024B307B116B307B955
:1021E00006BB482000900098482801D1012000E05B
:1021F000002050B900BF502080F31188BFF34F8FEB
:10220000BFF36F8F00BF00BFFEE700BF2546012070
:1022100085F846004B463A46314640460095FFF762
:10222000B0FF0BE055B900BF502080F31188BFF319
:102230004F8FBFF36F8F00BF00BFFEE72846BDE89A
:10224000F88370B503460C46194651B900BF5025B6
:1022500085F31188BFF34F8FBFF36F8F00BF00BFAF
:10226000FEE752B900BF502585F31188BFF34F8FA9
:10227000BFF36F8F00BF00BFFEE791F84650012DFE
:1022800005D10CB10D6825601160012000E000202F
:1022900070BD2DE9F84305460E4617460024FDB1F2
:1022A000601EB0FBF5F0B0421AD305FB06F010F14A
:1022B000490F15D805FB06F808F1480003F080FC2B
:1022C0000446CCB1A14609F14809002084F8460033
:1022D0003B464A46314628460094FFF752FF0BE042
:1022E00054B900BF502080F31188BFF34F8FBFF364
:1022F0006F8F00BF00BFFEE72046BDE8F88370B5D2
:10230000044603F06AFF94F9455010E0606A08B98A
:10231000012000E0002038B904F1240002F0F6F8B2
:1023200018B102F07AFA00E003E0681E45B2002D11
:10233000ECDC00BFFF2084F8450003F075FF03F0DC
:102340004CFF94F9445010E0206908B9012000E0E6
:10235000002048B904F1100002F0D8F808B102F0EA
:102360005CFA681E45B200E001E0002DECDC00BF25
:10237000FF2084F8440003F057FF70BD70B5054698
:1023800003F02BFFA86BE96B884201D1012400E028
:10239000002403F049FF204670BD2DE9F0410446BA
:1023A0000F4615464FF00008A66B206C48B9206810
:1023B00000282CD1A06802F0BAFA80460020A06064
:1023C00025E07DB93946226C606803F0ECFF216C92
:1023D000606808446060D4E90101884217D320682E
:1023E000606014E03946226CE06803F0DCFF216C89
:1023F000E068411AE1602168E068884203D2216CFC
:10240000A068411AE160022D01D106B1761E701C50
:10241000A0634046BDE8F0812DE9FF4383B0064646
:1024200088461D464FF00009344654B900BF50207D
:1024300080F31188BFF34F8FBFF36F8F00BF00BFD2
:10244000FEE7B8F1000F01D1206C08B9012000E0CF
:10245000002050B900BF502080F31188BFF34F8F88
:10246000BFF36F8F00BF00BFFEE7022D02D1E06B0C
:10247000012801D1012000E0002050B900BF502008
:1024800080F31188BFF34F8FBFF36F8F00BF00BF82
:10249000FEE702F0D6F908B9059808B9012000E076
:1024A000002050B900BF502080F31188BFF34F8F38
:1024B000BFF36F8F00BF00BFFEE700BF03F08DFECC
:1024C000A06BE16B884201D3022D2BD12A464146F5
:1024D0002046FFF762FF0746606A08B9012000E066
:1024E000002068B904F1240002F010F888B14FF020
:1024F00080500B490860BFF34F8FBFF36F8F08E028
:102500003FB14FF0805006490860BFF34F8FBFF3D3
:102510006F8F03F089FE012007B0BDE8F083000053
:1025200004ED00E0059818B903F07EFE0020F3E703
:10253000B9F1000F04D101A802F014F94FF001091C
:1025400003F072FE01F04EFA03F047FE94F94400E6
:10255000401C10B9002084F8440094F94500401C48
:1025600010B9002084F8450003F05EFE05A901A81B
:1025700002F0FFF8F0B92046FFF700FFA0B104F128
:102580001000059901F032FF2046FFF7B8FE01F078
:102590001FF9002892D14FF08050FE490860BFF328
:1025A0004F8FBFF36F8F89E72046FFF7A8FE01F03A
:1025B0000FF983E72046FFF7A2FE01F009F900209A
:1025C000AAE710B5044654B10020A06020600021A5
:1025D000E16000231A4619462046FFF71DFF10BD93
:1025E0002DE9F04104460126002722460021012062
:1025F000FFF74FFE05462846FFF7E3FF2846BDE8F4
:10260000F0812DE9F84304460D4601274FF00008FC
:102610002B460022114601200094FFF7C5FD064617
:102620003046FFF7CEFF3046BDE8F88370B505466B
:102630002C4654B900BF502080F31188BFF34F8F50
:10264000BFF36F8F00BF00BFFEE702F0EAF8A1689A
:1026500088420CD1E068401EE060E06828B90023A1
:102660001A4619462046FFF7D7FE012600E000264D
:10267000304670BD01464A6A22B10A6B1268C2F147
:10268000050000E00020704770B5054603F0A5FD89
:10269000A86B08B9012400E0002403F0C5FD204622
:1026A00070BD2DE9F34182B0054600272C46B8469F
:1026B00054B900BF502080F31188BFF34F8FBFF390
:1026C0006F8F00BF00BFFEE7206C08B9012000E05B
:1026D000002050B900BF502080F31188BFF34F8F06
:1026E000BFF36F8F00BF00BFFEE702F0AAF808B982
:1026F000039808B9012000E0002050B900BF502025
:1027000080F31188BFF34F8FBFF36F8F00BF00BFFF
:10271000FEE700BF03F061FDA66BFEB1701EA06373
:10272000206810B902F0FAF9A060206908B9012008
:1027300000E0002060B904F1100001F0E7FE38B1BC
:102740004FF0805093490860BFF34F8FBFF36F8FF6
:1027500003F06AFD012004B0BDE8F081039818B9C8
:1027600003F062FD0020F6E71FB9684601F0FAFFAA
:10277000012703F059FD01F035F903F02EFD94F91E
:102780004400401C10B9002084F8440094F945002E
:10279000401C10B9002084F8450003F045FD03A952
:1027A000684601F0E6FF40BB2046FFF76DFFF0B141
:1027B000206838B903F011FDA06802F04EF8804699
:1027C00003F032FD04F12400039901F00FFE2046CE
:1027D000FFF795FD00F0FCFF00289BD14FF08050E3
:1027E0006C490860BFF34F8FBFF36F8F92E72046AD
:1027F000FFF785FD00F0ECFF8CE72046FFF77FFD3B
:1028000000F0E6FF2046FFF73FFF002882D0B8F136
:10281000000F0BD003F0E1FC2046FFF72BFF06462C
:102820003146A06802F0EEF803F0FEFC002092E7CB
:102830002DE9F04106460F46344654B900BF5020FA
:1028400080F31188BFF34F8FBFF36F8F00BF00BFBE
:10285000FEE701F0E6FFA168884204D1E068401C71
:10286000E060012508E039462046FFF71AFF0546DB
:1028700015B1E068401CE0602846BDE8F081F8B57D
:1028800005460E46174600246DB1AE420BD8022015
:102890003B460022114600902846FFF785FC04467F
:1028A0006CB1A6630BE054B900BF502080F31188CF
:1028B000BFF34F8FBFF36F8F00BF00BFFEE720460F
:1028C000F8BD70B505460E46002455B1AE4208D895
:1028D000022200212846FFF7DCFC04466CB1A66307
:1028E0000BE054B900BF502080F31188BFF34F8F25
:1028F000BFF36F8F00BF00BFFEE7204670BD2DE91C
:10290000FC5F80468B4691461E46444654B900BF44
:10291000502080F31188BFF34F8FBFF36F8F00BF3C
:1029200000BFFEE7BBF1000F01D1206C08B9012008
:1029300000E0002050B900BF502080F31188BFF3A1
:102940004F8FBFF36F8F00BF00BFFEE7022E02D193
:10295000E06B012801D1012000E0002050B900BF48
:10296000502080F31188BFF34F8FBFF36F8F00BFEC
:1029700000BFFEE703F08CFC00BF5021EFF3118095
:1029800081F31188BFF34F8FBFF36F8F00BF0546F0
:10299000A06B01E004ED00E0E16B884201D3022E60
:1029A0003CD194F94570A06B0190324659462046BF
:1029B000FFF7F3FC781C88B9606A08B9012000E0D1
:1029C000002050B904F1240001F0A0FD28B1B9F1B4
:1029D000000F02D00120C9F800001CE000BF01F088
:1029E00060FC00900098874214D27F2F01D0012014
:1029F00000E0002050B900BF502080F31188BFF3E1
:102A00004F8FBFF36F8F00BF00BFFEE7781C40B24F
:102A100084F8450000BF4FF0010A01E04FF0000AC2
:102A200000BF85F3118800BF5046BDE8FC9F2DE92B
:102A3000F05F074688463C4654B900BF502080F3FB
:102A40001188BFF34F8FBFF36F8F00BF00BFFEE74A
:102A5000206C08B9012000E0002050B900BF5020D0
:102A600080F31188BFF34F8FBFF36F8F00BF00BF9C
:102A7000FEE7206808B9A06808B9012000E000203E
:102A800050B900BF502080F31188BFF34F8FBFF3C0
:102A90006F8F00BF00BFFEE703F0FAFB00BF5021BD
:102AA000EFF3118081F31188BFF34F8FBFF36F8F66
:102AB00000BF0546D4F838A0E06B504537D994F9EB
:102AC00045600AF10100A063701C88B9606A08B90A
:102AD000012000E0002038BB04F1240001F016FDC5
:102AE00010B3B8F1000F1FD00120C8F800001BE0A0
:102AF00000BF01F0D6FB83465E4514D27F2E01D085
:102B0000012000E0002050B900BF502080F3118860
:102B1000BFF34F8FBFF36F8F00BF00BFFEE7701C86
:102B200040B284F8450000BF4FF0010901E04FF0CA
:102B3000000900BF85F3118800BF4846BDE8F09F3B
:102B400070B504460D46206C70B1216CE0680144FC
:102B5000E160D4E90210884201D32168E16028468F
:102B6000226CE16803F01FFC70BD2DE9F74183B0D2
:102B700005460E464FF000082C4654B900BF5020C1
:102B800080F31188BFF34F8FBFF36F8F00BF00BF7B
:102B9000FEE70EB9206C08B9012000E0002050B912
:102BA00000BF502080F31188BFF34F8FBFF36F8FAA
:102BB00000BF00BFFEE701F044FE08B9059808B960
:102BC000012000E0002050B900BF502080F31188A0
:102BD000BFF34F8FBFF36F8F00BF00BFFEE700BF93
:102BE00003F0FBFAA76BF7B131462046FFF7A8FFC9
:102BF000781EA063206908B9012000E0002060B9B8
:102C000004F1100001F082FC38B14FF08050FD4912
:102C10000860BFF34F8FBFF36F8F03F005FB0120F8
:102C200006B0BDE8F081059818B903F0FDFA002060
:102C3000F6E7B8F1000F04D101A801F093FD4FF0C1
:102C4000010803F0F1FA00F0CDFE03F0C6FA94F9A2
:102C50004400401C10B9002084F8440094F9450059
:102C6000401C10B9002084F8450003F0DDFA05A9E6
:102C700001A801F07EFDF0B92046FFF705FDA0B1E7
:102C800004F12400059901F0B1FB2046FFF737FB62
:102C900000F09EFD0028A3D14FF08050D949086074
:102CA000BFF34F8FBFF36F8F9AE72046FFF727FBE5
:102CB00000F08EFD94E72046FFF721FB00F088FD31
:102CC0002046FFF7E1FC00288AD00020A8E72DE984
:102CD000F74382B005460E464FF000082C4654B923
:102CE00000BF502080F31188BFF34F8FBFF36F8F69
:102CF00000BF00BFFEE70EB9206C08B9012000E05C
:102D0000002050B900BF502080F31188BFF34F8FCF
:102D1000BFF36F8F00BF00BFFEE701F092FD08B95F
:102D2000049808B9012000E0002050B900BF5020ED
:102D300080F31188BFF34F8FBFF36F8F00BF00BFC9
:102D4000FEE700BF03F049FAD4F83890B9F1000F5C
:102D50001ED0E76831462046FFF7F2FEE760606A62
:102D600008B9012000E0002060B904F1240001F05E
:102D7000CDFB38B14FF08050A2490860BFF34F8FB0
:102D8000BFF36F8F03F050FA012005B0BDE8F08368
:102D9000049818B903F048FA0020F6E7B8F1000FDC
:102DA00004D1684601F0DEFC4FF0010803F03CFA64
:102DB00000F018FE03F011FA94F94400401C10B919
:102DC000002084F8440094F94500401C10B900200C
:102DD00084F8450003F028FA04A9684601F0C9FC0C
:102DE000F0B92046FFF750FCA0B104F1240004998B
:102DF00001F0FCFA2046FFF782FA00F0E9FC002817
:102E0000A0D14FF080507F490860BFF34F8FBFF3D0
:102E10006F8F97E72046FFF772FA00F0D9FC91E731
:102E20002046FFF76CFA00F0D3FC2046FFF72CFC9D
:102E3000002887D00020A8E72DE9F84F07468A46EA
:102E400090463C4654B900BF502080F31188BFF330
:102E50004F8FBFF36F8F00BF00BFFEE7BAF1000FC7
:102E600001D1206C08B9012000E0002050B900BF5A
:102E7000502080F31188BFF34F8FBFF36F8F00BFD7
:102E800000BFFEE703F004FA00BF5021EFF311800A
:102E900081F31188BFF34F8FBFF36F8F00BF0546DB
:102EA000D4F838B0BBF1000F3CD094F944605146DF
:102EB0002046FFF745FEABF10100A063701C88B906
:102EC000206908B9012000E0002040BB04F1100097
:102ED00001F01CFB18B3B8F1000F20D00120C8F896
:102EE00000001CE000BF01F0DCF900900098864271
:102EF00014D27F2E01D0012000E0002050B900BF85
:102F0000502080F31188BFF34F8FBFF36F8F00BF46
:102F100000BFFEE7701C40B284F8440000BF4FF0D1
:102F2000010901E04FF0000900BF85F3118800BFDF
:102F30004846BDE8F88F2DE9F047064688463446F6
:102F400054B900BF502080F31188BFF34F8FBFF3F7
:102F50006F8F00BF00BFFEE7B8F1000F01D1206CFA
:102F600008B9012000E0002050B900BF502080F3D4
:102F70001188BFF34F8FBFF36F8F00BF00BFFEE715
:102F8000206C08B1012000E0002050B900BF5020A3
:102F900080F31188BFF34F8FBFF36F8F00BF00BF67
:102FA000FEE703F075F900BF5021EFF3118081F3C4
:102FB0001188BFF34F8FBFF36F8F00BF0546A06B23
:102FC00048B1D4F80C9041462046FFF7B9FDC4F84B
:102FD0000C90012700E0002700BF85F3118800BF97
:102FE0003846BDE8F08770B504466CB900BF502084
:102FF00080F31188BFF34F8FBFF36F8F00BF00BF07
:10300000FEE7000004ED00E003F0E7F8A56B03F035
:103010000BF9284670BD70B50446254655B900BF6A
:10302000502080F31188BFF34F8FBFF36F8F00BF25
:1030300000BFFEE703F0D1F8D5E90E10461A03F001
:10304000F3F8304670BD10B501460A4652B900BFCC
:10305000502383F31188BFF34F8FBFF36F8F00BFEF
:1030600000BFFEE7906B10BD70B50446254655B90C
:1030700000BF502080F31188BFF34F8FBFF36F8FD5
:1030800000BF00BFFEE795F8460010B9284602F0E1
:10309000CCFE70BD0146086C70470146C86B704796
:1030A00010B501460A4652B900BF502383F3118878
:1030B000BFF34F8FBFF36F8F00BF00BFFEE7936B6F
:1030C0000BB9012000E0002010BD10B501460A46F2
:1030D00052B900BF502383F31188BFF34F8FBFF362
:1030E0006F8F00BF00BFFEE7936BD46BA34201D18B
:1030F000012000E0002010BD2DE9F04105460E46FC
:1031000017462C4603F069F894F94400401C10B9A6
:10311000002084F8440094F94500401C10B90020B8
:1031200084F8450003F080F8A06B28B93A46314690
:1031300004F1240001F0B9F92046FFF7E0F8BDE8FA
:10314000F08100002DE9F05F82460F4690469B46D5
:103150000A9E0C9C4FEA8801A522206B03F068F9B7
:10316000A8F10100216B01EB800929F0070909F0A2
:10317000070008B9012000E0002050B900BF50202E
:1031800080F31188BFF34F8FBFF36F8F00BF00BF75
:10319000FEE77FB1002507E0795D04F13400415579
:1031A000785D00B902E06D1C102DF5D300BF002141
:1031B00043200155052E01D2012000E0002050B926
:1031C00000BF502080F31188BFF34F8FBFF36F8F84
:1031D00000BF00BFFEE7052E00D30426E66266644A
:1031E000201DFEF726FF04F11800FEF722FF2461E0
:1031F000C6F10500A06164625A465146484602F095
:1032000015FF20600B9808B10B980460BDE8F09F93
:103210002DE9FF4F85B0074688469146DDE9144BFE
:10322000DDE912A60EB1012000E0002050B900BF78
:10323000502080F31188BFF34F8FBFF36F8F00BF13
:1032400000BFFEE70CB1012000E0002050B900BF34
:10325000502080F31188BFF34F8FBFF36F8F00BFF3
:1032600000BFFEE7542004900498542801D10120A7
:1032700000E0002050B900BF502080F31188BFF358
:103280004F8FBFF36F8F00BF00BFFEE700BFB4B129
:10329000AEB125465421284603F0F4F82C462E639F
:1032A000022085F851000020CDE900ABCDE90250A5
:1032B0004A4641463846089BFFF744FF00E0002598
:1032C000284609B0BDE8F08F10B5002407E004EBF4
:1032D0008401FE4A02EB8100FEF79EFE641C052C71
:1032E000F5D3FB48FEF798FEFA48FEF795FEFA483C
:1032F000FEF792FEF948FEF78FFEF948FEF78CFEC6
:10330000F348F8490860F348F749086010BD10B564
:10331000044602F062FFF5480068401CF34908606B
:10332000F348006840B9F248046008460068012884
:103330000DD1FFF7C9FF0AE0EE48006838B9EC4844
:103340000068C06AE16A884201D8E9480460EA4836
:103350000068401CE849086000BF00BFE749E06A18
:103360000968884202D9E549E06A086000BF00BFE9
:10337000E16A01EB8101D54A02EB81014868A06056
:103380008268E260211D826851608160E16A01EB20
:103390008101CE4A02EB81026261E16A01EB8101A7
:1033A000CA4A52F82110491CE26A02EB8202C74B5A
:1033B00043F8221000BF00BF02F036FFCD4800687E
:1033C00078B100BFCA480068C06AE16A884207D283
:1033D0004FF08050CA490860BFF34F8FBFF36F8F23
:1033E00000BF10BD2DE9F04F85B005460E461746CB
:1033F0009846DDE90FABDDF838900020049004A872
:1034000043463A4631468DE8000E03902846FFF7C2
:10341000FFFE044614B12046FFF779FF049805B07B
:10342000BDE8F08F2DE9FF5F0746884616469946AE
:10343000DDE90EABB00002F0C3FB054675B15420C8
:1034400002F0BEFB04462CB15421204603F01AF8CA
:10345000256304E0284602F0E8FC00E0002464B1A3
:10346000002084F851004B4632464146CDE900AB7E
:10347000CDE902403846FFF765FE204604B0BDE8BE
:10348000F09F2DE9FC5F06460F4690469946DDE920
:103490000CAB4B46424639463046CDE900ABFFF710
:1034A000C1FF054625B12846FFF731FF012401E0A1
:1034B0004FF0FF342046BDE8FC9F10B5044694F859
:1034C000510030B9206B02F0B0FC204602F0ADFC98
:1034D0001AE094F85100012803D1204602F0A5FC1F
:1034E00012E094F85100022801D1012000E00020F0
:1034F00050B900BF502080F31188BFF34F8FBFF346
:103500006F8F00BF00BFFEE710BD764800680068FF
:1035100008B9012000E0002020B14FF0FF307949C8
:10352000086005E06F480068C06800687549086079
:1035300070472DE9F0410546002602F04EFE15B910
:103540006B48006800E028460446201DFEF79AFDFF
:10355000A06A18B104F11800FEF794FD66480068EF
:10356000401C6549086062480068844201D101201E
:1035700000E0002007465F48006858B157B1211DA0
:103580005648FEF759FD60480068401C5E490860D7
:10359000012606E055480068401E54490860FFF7C0
:1035A000B4FF02F041FE012E02D02046FFF785FF56
:1035B00050480068E8B14E480068844219D1534829
:1035C000006808B9012000E0002050B900BF502079
:1035D00080F31188BFF34F8FBFF36F8F00BF00BF21
:1035E000FEE74FF0805046490860BFF34F8FBFF3AE
:1035F0006F8FBDE8F0812DE9F0414FF0000843489E
:103600000068002860D142480068451C40480560B9
:103610001DBB00BF33480068006808B9012000E006
:10362000002050B900BF502080F31188BFF34F8FA6
:10363000BFF36F8F00BF00BFFEE72A4807682A4824
:103640000068284908602848076032480068401C24
:1036500030490860FFF759FF00BF2A4800688542DB
:103660007ED300BF1F480068006808B9012000E051
:10367000002020B14FF0FF302249086099E019483E
:103680000068C068C4686668B54202D21D4806601A
:103690008FE000BF6069D4E902128A60D4E9022198
:1036A0004A60211D42688A4201D1E16841600022DE
:1036B00062610168491E016000BFA06A28B100BFB5
:1036C000A06AD4E9071227E07AE036E070150020FE
:1036D000D4150020E8150020FC150020101600204D
:1036E0002416002040000020440000204C00002050
:1036F0003C000020580000206800002054000020FA
:1037000004ED00E06C00002048000020780000205C
:1037100050000020640000208A60D4E907214A603C
:1037200004F1180142688A4201D1216A41600022F5
:10373000A2620168491E016000BF00BF00BFF749D7
:10374000E06A0968884202D9F449E06A086000BF6B
:1037500000BFE16A01EB8101F14A02EB810100E067
:1037600028E04868A0608268E260211D826851609C
:103770008160E16A01EB8101E94A02EB8102626149
:10378000E16A01EB8101E64A52F82110491CE26A24
:1037900002EB8202E24B43F8221000BF00BFE14976
:1037A000E06A0968C96A88427FF65CAF4FF0010899
:1037B00058E700BFDC48006808B14FF0010804E09A
:1037C000DA480068401CD94908604046BDE8F081ED
:1037D0002DE9F0410024002702F0FFFC0025D44829
:1037E000006808B1012000E0002050B900BF50205F
:1037F00080F31188BFF34F8FBFF36F8F00BF00BFFF
:10380000FEE7CB480068401EC949086008460068CA
:1038100000286FD1C748006800286BD065E0C64813
:10382000C068C46800BFA06AD4E907128A60D4E9FE
:1038300007214A6004F1180142688A4201D1216AD5
:1038400041600022A2620168491E016000BF00BF02
:103850006069D4E902128A60D4E902214A60211D1C
:1038600042688A4201D1E1684160002262610168D8
:10387000491E016000BF00BF00BFA849E06A096897
:10388000884202D9A549E06A086000BF00BFE16A2A
:1038900001EB8101A24A02EB81014868A0608268C5
:1038A000E260211D826851608160E16A01EB810163
:1038B0009B4A02EB81026261E16A01EB8101984A55
:1038C00052F82110491CE26A02EB8202944B43F841
:1038D000221000BF00BF9349E06A0968C96A8842A4
:1038E00003D90120904941F825009348006810B998
:1038F000012001E026E00020002890D00CB1FFF765
:1039000004FE8A4806686EB100BFFFF774FE18B166
:103910000120854941F82500761E002EF5D10020B2
:1039200082490860804850F8250058B1012700BF3F
:103930007C480068380781490860BFF34F8FBFF3A8
:103940006F8F00BF02F070FC3846BDE8F0812DE9B2
:10395000F04705460E467A4807687A48D0F8008056
:103960007948D0F800906F480068001DFEF78AFB88
:10397000681CE0B9DEB100BF74494868694909684C
:103980008860684982680968CA6066490968091DD3
:103990008268516063490968091D81606B4A614909
:1039A00009684A6111460968491C116018E07C19D0
:1039B0005C4800684460BC4206D25A480168091D50
:1039C0004846FEF745FB0BE056480168091D404696
:1039D000FEF73EFB5E480068844201D25C4804600A
:1039E000BDE8F08752480068401C514908607047A4
:1039F0002DE9F04704460F464FF0000954B900BFC7
:103A0000502080F31188BFF34F8FBFF36F8F00BF3B
:103A100000BFFEE70FB1012000E0002050B900BF59
:103A2000502080F31188BFF34F8FBFF36F8F00BF1B
:103A300000BFFEE7FFF7D6FF414806683C48006834
:103A4000012800D100E0002050B900BF502080F3D1
:103A50001188BFF34F8FBFF36F8F00BF00BFFEE72A
:103A60002068C5192068B04207D92068A8420BD940
:103A7000B54209D94FF0010906E02068A84201D8F3
:103A8000B54201D94FF001092560B9F1000F03D00B
:103A9000A81B0021FFF75BFFFFF79AFE8046B8F1F5
:103AA000000F07D14FF0805024490860BFF34F8FBB
:103AB000BFF36F8F4846BDE8F08770B50446002518
:103AC000D4B1FFF78FFF1A480068012800D100E049
:103AD000002050B900BF502080F31188BFF34F8FF2
:103AE000BFF36F8F00BF00BFFEE700212046FFF746
:103AF0002EFFFFF76DFE05463DB94FF080500F4990
:103B00000860BFF34F8FBFF36F8F70BD70B5044671
:103B100002F063FBF4B9034800681CE05400002085
:103B2000701500203C000020600000205C00002098
:103B3000780000204C000020FC15002004ED00E07F
:103B400050000020400000204400002024160020E7
:103B50006C00002020460646F56A02F065FB284608
:103B600070BD2DE9F041054602F092FB00BF5021E7
:103B7000EFF3118081F31188BFF34F8FBFF36F8F85
:103B800000BF044615B9FE48006800E02846074615
:103B9000FE6A00BF84F3118800BF3046BDE8F081A3
:103BA00070B5044602F019FB14B9F548006800E04E
:103BB00020460646756C02F037FB284670BD2DE99D
:103BC000F041054602F064FB00BF5021EFF3118085
:103BD00081F31188BFF34F8FBFF36F8F00BF04468F
:103BE00015B9E748006800E0284607467E6C00BF2C
:103BF00084F3118800BF3046BDE8F0812DE9F0471D
:103C000007460D464FF00009052D01D2012000E0C6
:103C1000002050B900BF502080F31188BFF34F8FB0
:103C2000BFF36F8F00BF00BFFEE7052D00D3042553
:103C300002F0D3FA17B9D248006800E038460446CB
:103C4000666CAE4276D0B5420BD9CD48006884424E
:103C500011D0CB480068C06AA8420CD24FF00109CD
:103C600009E0C7480068844201D1012000E000203B
:103C7000012800D18146D4F82C80E16A606C88422A
:103C800002D0E06AA84200D2E5626564A06900F053
:103C9000004010B9C5F10500A06108EB8801B94AE0
:103CA00002EB81016069884201D1012000E000201F
:103CB00090B3201DFEF7E6F900BF00BFB249E06AED
:103CC0000968884202D9B049E06A086000BF00BFB5
:103CD000E16A01EB8101AB4A02EB81014868A06017
:103CE0008268E260211D826851608160E16A01EBB7
:103CF0008101A44A02EB81026261E16A01EB810168
:103D0000A04A52F82110491CE26A02EB82029D4B44
:103D100043F8221000BF00BFB9F1000F09D000BF67
:103D20004FF0805099490860BFF34F8FBFF36F8FFA
:103D300000BF00BF02F078FABDE8F08770B5944884
:103D4000006818B101209349086059E000209149AA
:103D5000086000BF8A480068046B4FF0A5362068F1
:103D6000B0F1A53F0BD16068B0F1A53F07D1A068C5
:103D7000B0F1A53F03D1E068B0F1A53F09D080487C
:103D8000006800F1340529467D480068FCF7ACFA6C
:103D900000BF00BF00BF7C4801680CE051B900BF04
:103DA000502080F31188BFF34F8FBFF36F8F00BF98
:103DB00000BFFEE7491E01EB8100724A52F8200065
:103DC00008B9012000E000200028E7D100BF01EB86
:103DD00081026C4B03EB820042685268426000F142
:103DE00008024368934201D1C26842604268D268C7
:103DF000634B1A6000BF6448016000BF184600684A
:103E000070BD70B5054602F0E8F915B95C48006868
:103E100000E028460446201DFEF734F9A06A18B1D8
:103E200004F11800FEF72EF9211D5B48FEF704F996
:103E3000002009E004F15001095C012903D10022AE
:103E400004F150010A54401C0128F3DB02F0ECF9A4
:103E50005248006828B102F0C0F9FFF756FB02F0A3
:103E6000E3F947480068844229D14C480068D0B142
:103E70004748006808B9012000E0002050B900BFA1
:103E8000502080F31188BFF34F8FBFF36F8F00BFB7
:103E900000BFFEE74FF080503C490860BFF34F8FF2
:103EA000BFF36F8F0BE03C4806683D4800688642D0
:103EB00003D100203249086001E0FFF73FFF70BDE9
:103EC00010B502460023114652B900BF502080F3BE
:103ED0001188BFF34F8FBFF36F8F00BF00BFFEE7A6
:103EE0002D4C4869A04201D1012000E00020E0B142
:103EF0002C4C886AA04201D1012000E00020A0B92A
:103F0000886A08B9012000E0002070B10123002078
:103F100007E001F15004245C012C01D1002302E0F0
:103F2000401C0128F5DB00BF00BF184610BD70B56E
:103F300005462C4655B900BF502080F31188BFF3C9
:103F40004F8FBFF36F8F00BF00BFFEE70C480068C4
:103F5000844262D0002C60D002F03FF92046FFF787
:103F6000AFFF002857D0201DFEF78CF800BF00BF20
:103F70000549E06A0968884217D90349E06A13E0F5
:103F80003C000020701500205400002004ED00E0EB
:103F90007800002060000020241600205800002037
:103FA0004C000020FC150020086000BF00BFE16A43
:103FB00001EB8101F84A02EB81014868A060826848
:103FC000E260211D826851608160E16A01EB81013C
:103FD000F14A02EB81026261E16A01EB8101EE4A82
:103FE00052F82110491CE26A02EB8202EA4B43F8C4
:103FF000221000BF00BF00BFE8480068C06AE16A45
:10400000884207D24FF08050E5490860BFF34F8FD8
:10401000BFF36F8F00BF02F007F970BD2DE9F041CB
:1040200006460027344656B900BF502080F3118859
:10403000BFF34F8FBFF36F8F00BF00BFFEE702F0EB
:1040400027F900BF5020EFF3118180F31188BFF3EF
:104050004F8FBFF36F8F00BF0D462046FFF730FF35
:10406000002845D0CF48006800283CD1CB49E06A01
:104070000968C96A884203D901270120CA49086032
:10408000201DFDF7FFFF00BF00BFC849E06A0968B7
:10409000884202D9C549E06A086000BF00BFE16AF2
:1040A00001EB8101BC4A02EB81014868A060826893
:1040B000E260211D826851608160E16A01EB81014B
:1040C000B54A02EB81026261E16A01EB8101B24A09
:1040D00052F82110491CE26A02EB8202AE4B43F80F
:1040E000221000BF04E004F11801B148FDF7A4FF5D
:1040F00000BF85F3118800BF3846BDE8F081AD4BA5
:104100000360AD4B0B6080231360704710B516E061
:1041100002F063F8A948C068C468201DFDF7B2FF2B
:10412000A7480068401EA6490860A6480068401ECF
:10413000A449086002F078F82046FFF7BEF9A148CC
:1041400000680028E4D110BD00BFFFF7DFFF9248F0
:1041500000680128F9D94FF0805091490860BFF3F9
:104160004F8FBFF36F8FF0E7F0B58BB001260027BC
:10417000002508E094A0405D07A9485507A8405DC8
:1041800000B902E06D1C102DF4DB00BF002421E01B
:104190008F4F00200690059004AA05A906A8FFF7F6
:1041A000AEFF0022DDE905101346CDE900210290A3
:1041B00007A93846049AFFF715F9864941F8240003
:1041C000084650F8240008B1012600E0002606B990
:1041D00002E0641C012CDBDB00BF30460BB0F0BDFD
:1041E00010B5FFF7C1FF0446012C02D101F071FAAE
:1041F0000446012C15D100BF502080F31188BFF375
:104200004F8FBFF36F8F00BF4FF0FF3072490860D0
:1042100001207249086000207149086001F023FF05
:1042200010E0601C08B1012000E0002050B900BF80
:10423000502080F31188BFF34F8FBFF36F8F00BF03
:1042400000BFFEE76748006810BD70B501F08DFB48
:104250000546FFF76EF9002405E05E4951F8240099
:10426000FFF767F9641C012CF7DBFFF74FFF00BF76
:10427000502080F31188BFF34F8FBFF36F8F00BFC3
:1042800000205649086001F093FF70BD544908684A
:10429000704770B501F0FCFF0025514804682046C6
:1042A00070BD474800687047014611B93B48006837
:1042B00000E00846024652B900BF502080F3118842
:1042C000BFF34F8FBFF36F8F00BF00BFFEE702F158
:1042D0003400704770B504460B460BB1012500E071
:1042E000002555B900BF502585F31188BFF34F8FC6
:1042F000BFF36F8F00BF00BFFEE70AB1012500E0EA
:10430000002555B900BF502585F31188BFF34F8FA5
:10431000BFF36F8F00BF00BFFEE714B91F4D2D68BC
:1043200000E02546294691F85150022D04D10D6B2D
:104330001D60116001200AE091F85150012D05D156
:104340000D6B1D6000251560012000E0002070BD90
:1043500070B504461348006808B9012000E0002049
:1043600050B900BF502080F31188BFF34F8FBFF3C7
:104370006F8F00BF00BFFEE7FFF734FB01F02DFF9A
:104380001948006820441849086001F04DFFFFF704
:104390001FFA0546284670BD701500203C0000201D
:1043A00004ED00E0780000206000002054000020B0
:1043B000FC150020381600208C1600201016002056
:1043C0004C0000204800002049444C4500000000FB
:1043D00049410008700000206C00002058000020B7
:1043E00050000020740000205C00002070B50446DE
:1043F0000D4654B900BF502080F31188BFF34F8F92
:10440000BFF36F8F00BF00BFFEE7F84801681831A7
:104410002046FDF71DFE01212846FFF798FA70BDE2
:1044200070B504460D46164654B900BF502080F3BF
:104430001188BFF34F8FBFF36F8F00BF00BFFEE740
:10444000EB48006808B1012000E0002050B900BF2F
:10445000502080F31188BFF34F8FBFF36F8F00BFE1
:1044600000BFFEE745F00040E0490968886100BFF1
:104470006068DE490968C861DC49826809680A62C7
:10448000DA490968183182685160D84909681831D9
:104490008160D64909688C622168491C216000BF8F
:1044A00001213046FFF753FA70BD70B504460E4641
:1044B000154654B900BF502080F31188BFF34F8FC9
:1044C000BFF36F8F00BF00BFFEE700BF6068C74942
:1044D0000968C861C549826809680A62C3490968F0
:1044E000183182685160C149096818318160BF493B
:1044F00009688C622168491C216000BF0DB14FF032
:10450000FF3629463046FFF722FA70BD70B50346E4
:10451000D868C16851B900BF502080F31188BFF33B
:104520004F8FBFF36F8F00BF00BFFEE700BF886AE9
:10453000D1E90745A560D1E90754656001F1180488
:104540004568A54201D10C6A446000258D6204686B
:10455000641E046000BFA6480068002843D100BF65
:104560004869D1E90245A560D1E9025465600C1D96
:104570004568A54201D1CC68446000254D610468BE
:10458000641E046000BF00BF00BF9A4CC86A246864
:10459000A04202D9974CC86A206000BF00BFCC6A15
:1045A00004EB8404944D05EB84046068886085689E
:1045B000CD600C1D85686C608460CC6A04EB84045B
:1045C0008D4D05EB84054D61CC6A04EB84048A4D66
:1045D00055F82440641CCD6A05EB8505864E46F8E7
:1045E000254000BF11E000BF844C6068C861856849
:1045F0000D6201F1180485686C6084607F4D8D62E6
:104600002C462468641C2C6000BF784CC86A24685F
:10461000E46AA04204D901220120794C206000E024
:104620000022104670BD70B502460B4670490968FD
:1046300009B1012100E0002151B900BF502181F3EF
:104640001188BFF34F8FBFF36F8F00BF00BFFEE72E
:1046500043F000411160D06850B900BF502181F390
:104660001188BFF34F8FBFF36F8F00BF00BFFEE70E
:1046700000BF1169D2E90154AC60D2E901456C6018
:104680004C68944201D194684C60002414610C6819
:10469000641E0C6000BF00BF4169D0E90245A560FF
:1046A000D0E902546560041D4D68A54201D1C4687B
:1046B0004C60002545610C68641E0C6000BF00BFA3
:1046C00000BF4C4CC16A2468A14202D9494CC16A5E
:1046D000216000BF00BFC46A04EB8404464D05EBB3
:1046E0008404616881608D68C560041D8D686C609C
:1046F0008C60C46A04EB84043F4D05EB840545617E
:10470000C46A04EB84043C4D55F82440641CC56A1B
:1047100005EB8505384E46F8254000BF00BF334CF9
:10472000C16A2468E46AA14202D90121344C2160A3
:1047300070BD10B5044654B900BF502080F31188F5
:10474000BFF34F8FBFF36F8F00BF00BFFEE701F0D5
:1047500044FD2C48006820602B480068606001F030
:1047600063FD10BD27490968016027490968416058
:10477000704770B505460C4655B900BF502080F310
:104780001188BFF34F8FBFF36F8F00BF00BFFEE7ED
:1047900054B900BF502080F31188BFF34F8FBFF38F
:1047A0006F8F00BF00BFFEE701F017FD16480268DB
:1047B0006868131A2068401C08B9002629E01149CE
:1047C00028680968884206D06868904203D80126A4
:1047D000002020601DE02068984217D92068C01A88
:1047E00020602846FFF7BEFF002612E03C000020B4
:1047F000780000205400002070150020FC150020D7
:104800006000002064000020500000200020206094
:10481000012601F009FD304670BD0120FA4908600B
:104820007047FA490868704701460020002903DBF9
:10483000012901DA012200E000220AB1F34A1068DE
:104840007047F349096809B9012005E0F149096891
:1048500009B9022000E00020704770B505462C46DB
:104860000026002D61D0E949E06A0968C96A8842DA
:1048700054D2A06900F0004028B9E4480068C06A3A
:10488000C0F10500A061E16A01EB8101E24A02EB9F
:1048900081016069884201D1012000E00020B0B3AD
:1048A000201DFDF7EFFBD9480068C06AE06200BF39
:1048B00000BFDA49E06A0968884202D9D749E06A4C
:1048C000086000BF00BFE16A01EB8101D24A02EB40
:1048D00081014868A0608268E260211D82685160A1
:1048E0008160E16A01EB8101CB4A02EB81026261E6
:1048F000E16A01EB8101C84A52F82110491CE26AC1
:1049000002EB8202C44B43F8221000BF04E0FFE731
:10491000BE480068C06AE062012606E0BB49606CE0
:104920000968C96A884200D20126304670BD70B558
:1049300005462C460026002D62D0B448006884420B
:1049400001D1012000E0002050B900BF502080F3C9
:104950001188BFF34F8FBFF36F8F00BF00BFFEE71B
:10496000A06C50B900BF502080F31188BFF34F8F67
:10497000BFF36F8F00BF00BFFEE7A06C401EA064B6
:10498000616CE06A88423BD0A06CC8BB201DFDF77B
:1049900079FB606CE062E06AC0F10500A06100BFD5
:1049A00000BF9E49E06A0968884202D99B49E06AD3
:1049B000086000BF00BFE16A01EB8101964A02EB8B
:1049C00081014868A0608268E260211D82685160B0
:1049D0008160E16A01EB81018F4A02EB8102626131
:1049E000E16A01EB81018C4A52F82110491CE26A0C
:1049F00002EB8202884B43F8221000BF00BF012661
:104A0000304670BD2DE9F04706460F4634464FF05C
:104A10000109002E74D0A06C50B900BF502080F363
:104A20001188BFF34F8FBFF36F8F00BF00BFFEE74A
:104A3000606CB84201D23D4600E0656CE06AA84275
:104A40005ED0A06C01285BD170480068844201D020
:104A5000012000E0002050B900BF502080F31188F1
:104A6000BFF34F8FBFF36F8F00BF00BFFEE7D4F8D7
:104A70002C80E562A06900F0004010B9C5F1050086
:104A8000A06108EB8801644A02EB810160698842F9
:104A900001D1012000E0002090B3201DFDF7F2FAC3
:104AA00000BF00BF5D49E06A0968884202D95B49DE
:104AB000E06A086000BF00BFE16A01EB8101564A6D
:104AC00002EB81014868A0608268E260211D826873
:104AD00051608160E16A01EB81014F4A02EB810282
:104AE0006261E16A01EB81014B4A52F82110491CD5
:104AF000E26A02EB8202484B43F8221000BF00BF7B
:104B0000BDE8F08741490968886940490968C96A70
:104B1000C1F105013D4A1268916170473B4908683F
:104B200010B1816C491C816470472DE9F04704463F
:104B3000884616464FF000090CB9012000E000201D
:104B400050B900BF502080F31188BFF34F8FBFF3DF
:104B50006F8F00BF00BFFEE7FEF744FF01F03DFB93
:104B60002A4800684C3050F8240030B90121274809
:104B700000685030015506B1894601F055FBB9F186
:104B8000010F03D101213046FEF7E1FEFEF720FEC2
:104B90000746B9F1010F08D13FB94FF080502049C5
:104BA0000860BFF34F8FBFF36F8F01F016FB1748FC
:104BB00000684C3050F824507DB1B8F1000F06D099
:104BC0000021124800684C3040F8241005E0681EAF
:104BD0000E4909684C3141F8240000210B48006857
:104BE0005030015501F020FB2846BDE8F0872DE943
:104BF000F05F0446884691461D46DDF828A04FF038
:104C0000000B7CB901200EE0600000203C00002079
:104C1000580000207800002070150020540000206B
:104C200004ED00E0002050B900BF502080F311884F
:104C3000BFF34F8FBFF36F8F00BF00BFFEE7FEF7DC
:104C4000D1FE01F0CAFAFE4800685030005D02282B
:104C500011D0FB4909684C3101EB8400016821EA5D
:104C6000080101600121F648006850300155BAF191
:104C7000000F00D08B4601F0D7FABBF1010F03D132
:104C800001215046FEF763FEFEF7A2FD0746BBF189
:104C9000010F08D13FB94FF08050EA490860BFF3D7
:104CA0004F8FBFF36F8F01F098FA2DB1E448006881
:104CB0004C3050F824002860E14800685030005D16
:104CC000022801D0002609E0DD4909684C3101EBDA
:104CD0008400016821EA0901016001260021D84809
:104CE00000685030015501F09FFA3046BDE8F09F52
:104CF0002DE9F05F07460D4616469846DDF828A0D8
:104D00004FF0010B0DB9012000E0002050B900BFA9
:104D1000502080F31188BFF34F8FBFF36F8F00BF18
:104D200000BFFEE757B900BF502080F31188BFF3E2
:104D30004F8FBFF36F8F00BF00BFFEE73C4601F00F
:104D40004CFABAF1000F05D004F14C0050F82500E0
:104D5000CAF8000004F1500010F8059002214155F6
:104D6000B8F1050F29D2DFE808F027030D171C0062
:104D700004F14C0050F82500304304F14C0141F897
:104D800025002DE004F14C0050F82500401C04F1F2
:104D90004C0141F8250023E004F14C0040F8256067
:104DA0001EE0B9F1020F04D004F14C0040F8256078
:104DB00001E04FF0000B13E012E0A348006808B9CF
:104DC000012000E0002050B900BF502080F311887E
:104DD000BFF34F8FBFF36F8F00BF00BFFEE700BF71
:104DE00000BFB9F1010F64D100BF6069D4E90212BC
:104DF0008A60D4E902214A60211D42688A4201D1B9
:104E0000E1684160002262610168491E016000BFE3
:104E100000BF00BF8D49E06A0968884202D98B490A
:104E2000E06A086000BF00BFE16A01EB8101884AC7
:104E300002EB81014868A0608268E260211D8268FF
:104E400051608160E16A01EB8101814A02EB8102DC
:104E50006261E16A01EB81017D4A52F82110491C2F
:104E6000E26A02EB82027A4B43F8221000BF00BFD5
:104E7000A06A08B9012000E0002050B900BF50200E
:104E800080F31188BFF34F8FBFF36F8F00BF00BF58
:104E9000FEE700BF6A480068C06AE16A884207D23C
:104EA0004FF0805067490860BFF34F8FBFF36F8F9B
:104EB00000BF01F0B9F95846BDE8F09F2DE9F84F61
:104EC00080460D4617469946DDF828B0012000902F
:104ED000B8F1000F0AD100BF502080F31188BFF352
:104EE0004F8FBFF36F8F00BF00BFFEE70DB90120EA
:104EF00000E0002050B900BF502080F31188BFF3BC
:104F00004F8FBFF36F8F00BF00BFFEE701F0C0F906
:104F1000444600BF5021EFF3118081F31188BFF3A5
:104F20004F8FBFF36F8F00BF0646BBF1000F05D058
:104F300004F14C0050F82500CBF8000004F15000BB
:104F400010F805A002214155B9F1050F29D2DFE87B
:104F500009F027030D171C0004F14C0050F8250040
:104F6000384304F14C0141F825002DE004F14C00D8
:104F700050F82500401C04F14C0141F8250023E0C5
:104F800004F14C0040F825701EE0BAF1020F04D085
:104F900004F14C0040F8257001E00020009013E07F
:104FA00012E02948006808B9012000E0002050B94B
:104FB00000BF502080F31188BFF34F8FBFF36F8F76
:104FC00000BF00BFFEE700BF00BFBAF1010F7DD1F7
:104FD000A06A08B9012000E0002050B900BF5020AD
:104FE00080F31188BFF34F8FBFF36F8F00BF00BFF7
:104FF000FEE718480068002851D100BF6069D4E975
:1050000002128A60D4E902214A60211D42688A4264
:1050100001D1E1684160002262610168491E0160BE
:1050200000BF00BF00BF0949E06A0968884202D991
:105030000649E06A086000BF00BFE16A0CE00000BA
:105040003C00002004ED00E050000020540000204F
:10505000701500207800002001EB8101C64A02EBA8
:1050600081014868A0608268E260211D8268516009
:105070008160E16A01EB8101BF4A02EB810262615A
:10508000E16A01EB8101BC4A52F82110491CE26A35
:1050900002EB8202B84B43F8221000BF11E000BFC0
:1050A000B6494868E0618268226204F118018268AA
:1050B00051608160B14AA26211460968491C1160C1
:1050C00000BFAF49E06A0968C96A00E009E08842A8
:1050D00007D90B9810B101210B9801600120A94953
:1050E000086000BF86F3118800BF0098BDE8F88F04
:1050F0002DE9F04705460E46904655B900BF5020B1
:1051000080F31188BFF34F8FBFF36F8F00BF00BFD5
:10511000FEE70EB9012000E0002050B900BF50208A
:1051200080F31188BFF34F8FBFF36F8F00BF00BFB5
:10513000FEE701F0ADF82C4600BF5021EFF31180DF
:1051400081F31188BFF34F8FBFF36F8F00BF074606
:1051500004F1500010F8069002218155001F50F80C
:105160002600401C04F14C0141F82600B9F1010F62
:1051700079D1A06A08B9012000E0002050B900BF31
:10518000502080F31188BFF34F8FBFF36F8F00BFA4
:1051900000BFFEE77C480068002843D100BF60697B
:1051A000D4E902128A60D4E902214A60211D4268D2
:1051B0008A4201D1E1684160002262610168491EB2
:1051C000016000BF00BF00BF7049E06A0968884203
:1051D00002D96E49E06A086000BF00BFE16A01EBD6
:1051E0008101654A02EB81014868A0608268E26043
:1051F000211D826851608160E16A01EB81015E4A94
:1052000002EB81026261E16A01EB81015A4A52F8C4
:105210002110491CE26A02EB8202574B43F822102C
:1052200000BF11E000BF55494868E0618268226212
:1052300004F11801826851608160504AA2621146EF
:105240000968491C116000BF4D49E06A0968C96AD4
:10525000884208D9B8F1000F02D00120C8F8000038
:1052600001204849086000BF87F3118800BFBDE8EE
:10527000F0872DE9F04106460C460CB9012000E00C
:10528000002050B900BF502080F31188BFF34F8F2A
:10529000BFF36F8F00BF00BFFEE716B93848006844
:1052A00000E03046074600F098FF07F15000005D2F
:1052B000022805D1002107F150000155012500E029
:1052C000002500F0B1FF2846BDE8F0812DE9F0414E
:1052D00006460C4617460CB9012000E0002050B9E4
:1052E00000BF502080F31188BFF34F8FBFF36F8F43
:1052F00000BF00BFFEE716B92148006800E0304655
:10530000054600F06AFF05F14C0050F8248050F883
:105310002400B84305F14C0141F8240000F084FF5B
:105320004046BDE8F0811A4B03601A4B0B608023A6
:10533000136070470021124A1160174A1160174A22
:105340001160174A1160114A1160164A1160164A1D
:105350001160002004E000210A4A42F82010401C9D
:105360000128F8DB0021114A1160114A1160114A2D
:105370001160054A1160704770150020FC1500206F
:105380003C00002060000020780000205400002035
:105390008C180020E0180020480000204C0000205D
:1053A00050000020580000205C0000206400002015
:1053B000680000206C0000202DE9F04104460D46F5
:1053C00016461F464FF0000865602461B5420CD8B0
:1053D000F01BA169884202D34FF0010811E0211DA2
:1053E000F8480068FCF734FE0BE0BE4204D2BD4230
:1053F00002D34FF0010804E0211DF3480068FCF7D8
:1054000027FE4046BDE8F08170B504460D461646BD
:1054100004E0A06905442046216A8847A069411933
:105420002B4632462046FFF7C7FF0028F1D170BD5A
:1054300070B505460E46E4480068C068C468201D83
:10544000FCF720FE94F8240000F0040028B1324656
:1054500029462046FFF7D8FF05E094F8240000F025
:10546000FE0084F824002046216A884770BD70B58C
:1054700008E0D5480068C06804684FF0FF31204656
:10548000FFF7D6FFD0480068006808B9012000E0A7
:1054900000200028EDD0CC480568CA480068CA49F9
:1054A0000860C848056070BD70B50446FEF7EEFEA2
:1054B0000546C6480068854204D2FFF7D8FF0120A0
:1054C000206001E000202060C0480560284670BDD3
:1054D0007FB500200190029003907FE001980028A2
:1054E0007CDB039C606908B9012000E0002010B952
:1054F000201DFCF7C7FD6846FFF7D6FF054601985B
:105500000A2869D2DFE800F06805072E3658060839
:105510002F3700BF00BF00BF94F8240040F0010007
:1055200084F824000298A269811803462A4620467E
:10553000FFF742FFA8B194F8240000F0040038B14E
:105540000298A26981182A462046FFF75DFF05E010
:1055500094F8240000F0FE0084F824002046216A1C
:1055600088473AE000BF94F8240000F0FE0084F879
:10557000240032E000BF94F8240040F0010084F8D9
:1055800024000298A061A06908B1012000E0002079
:1055900050B900BF502080F31188BFF34F8FBFF385
:1055A0006F8F00BF00BFFEE7A06941192B462A4656
:1055B0002046FFF701FF10E094F8240000F00200FD
:1055C00018B9204600F031FC05E094F8240000F002
:1055D000FE0084F8240000E000BF00BF002201A903
:1055E0007B480068FDF7C1FA00287FF477AF7FBDE4
:1055F000F8B505460C46FEF7F5F96846FFF754FF87
:105600000646009820BB44B9B54206D8FEF7E0F83C
:1056100031462846FFF70CFF1CE03CB169480068A2
:10562000006808B9012000E000200446A91B2246BA
:1056300067480068FDF760FDFEF7CAF850B94FF003
:10564000805064490860BFF34F8FBFF36F8F01E054
:10565000FEF7BEF8F8BD01465B4A126812680AB947
:10566000012200E000220A600A6822B9564A126844
:10567000D268106800E00020704708B500BF684697
:10568000FFF7E9FF044620460099FFF7B1FFFFF757
:105690001FFFF4E708B500F0A0FD4D480068A8B969
:1056A0004D48FCF7B9FC4D48FCF7B6FC4A48464962
:1056B00008604A48434908600020494B494A0C2188
:1056C00000900A20FCF770FD4149086000F0ACFD35
:1056D00008BD10B586B00024FFF7DCFF3C48006829
:1056E000D0B100200590049003AA04A905A8FFF7F3
:1056F0001AFE0422DDE904100023CDE90021029006
:1057000039A13B48039AFDF76DFE3A490860084607
:10571000006800B1012400BF54B900BF502080F3DD
:105720001188BFF34F8FBFF36F8F00BF00BFFEE73D
:10573000204606B010BD2DE9F04706460D46174637
:105740009846DDE908940DB1012000E0002050B931
:1057500000BF502080F31188BFF34F8FBFF36F8FCE
:1057600000BF00BFFEE7FFF795FF2660A561C4F804
:105770001C80C4F82090201DFCF75BFC2FB194F82E
:10578000240040F0040084F82400BDE8F0872DE9EF
:10579000FC4705460E4617469846DDF82890282017
:1057A00000F00EFA044654B1002084F82400434669
:1057B0003A4631462846CDE90094FFF7BCFF204623
:1057C000BDE8FC87800000207C0000208C000020C9
:1057D0008400002004ED00E0E01A0020F41A00200C
:1057E000081B0020501B0020546D7220537663006C
:1057F0007B560008880000202DE9FC4706460F462E
:1058000090469946DDE90AA52820019001982828AC
:1058100001D1012000E0002050B900BF502080F3EA
:105820001188BFF34F8FBFF36F8F00BF00BFFEE73C
:1058300000BF55B900BF502080F31188BFF34F8FD0
:10584000BFF36F8F00BF00BFFEE72C4654B10220AC
:1058500084F824004B46424639463046CDE900A440
:10586000FFF769FF2046BDE8FC872DE9FE430546AA
:105870000C46164699460A9F4FF0000855B900BFDE
:10588000502080F31188BFF34F8FBFF36F8F00BF9D
:1058900000BFFEE7B248006808B300940196029585
:1058A000062C01DA012000E0002050B900BF502092
:1058B00080F31188BFF34F8FBFF36F8F00BF00BF1E
:1058C000FEE7062C14DAFEF7BCFF022808D10023FD
:1058D0003A466946A2480068FCF79EFD804607E00C
:1058E00000231A4669469E480068FCF795FD8046ED
:1058F0004046BDE8FE832DE9FE4305460C461646AC
:105900001F46DDF828904FF0000855B900BF502021
:1059100080F31188BFF34F8FBFF36F8F00BF00BFBD
:10592000FEE78F480068E8B1009401960295062CC6
:1059300001DB012000E0002050B900BF502080F3BF
:105940001188BFF34F8FBFF36F8F00BF00BFFEE71B
:10595000062C07DB00233A46694681480068FCF7BD
:10596000CEFF80464046BDE8FE837E48006808B111
:10597000012000E0002050B900BF502080F31188C2
:10598000BFF34F8FBFF36F8F00BF00BFFEE77548B7
:105990000068704701460A4651B900BF502080F3A5
:1059A0001188BFF34F8FBFF36F8F00BF00BFFEE7BB
:1059B0009069704770B505460E462C4655B900BF34
:1059C000502080F31188BFF34F8FBFF36F8F00BF5C
:1059D00000BFFEE700F001FC36B194F8240040F06F
:1059E000040084F8240005E094F8240000F0FB0093
:1059F00084F8240000F018FC70BD70B504462646FB
:105A000054B900BF502080F31188BFF34F8FBFF30C
:105A10006F8F00BF00BFFEE700F0DFFB96F82400A9
:105A200000F0040008B9002500E0012500F0FCFBAF
:105A3000284670BD70B504462046FFF7DEFF0546D8
:105A4000284670BD10B501460A4651B900BF502323
:105A500083F31188BFF34F8FBFF36F8F00BF00BF79
:105A6000FEE7506810BD30B50246134609B1012467
:105A700000E0002454B900BF502484F31188BFF320
:105A80004F8FBFF36F8F00BF00BFFEE793F8244036
:105A900004F0020414B10B60012000E0002030BDCE
:105AA00001460A4651B900BF502080F31188BFF368
:105AB0004F8FBFF36F8F00BF00BFFEE710687047C6
:105AC00070B50446264654B900BF502080F31188B3
:105AD000BFF34F8FBFF36F8F00BF00BFFEE700F033
